:0400000085EF00F098
:10000800A270A270A270A270A270A270A270A27058
:10001800A270A270A270A270A270A270A270A27048
:10002800A270A270A270A270A270A270A270A27038
:10003800A270A270A270A270A270A270A270A27028
:10004800A270A270A270A270A270A270A270A27018
:10005800A270A270A270A270A270A270A270A27008
:10006800A270A270A270A270A270A270A270A270F8
:10007800A270A270A270A2704200A270A270A270B8
:10008800A270A270A270A270A270A270A270A270D8
:10009800866FA270A270A2704200A270A270A270B5
:1000A800A270A270A270A270A270A270A270A270B8
:1000B800A270A270A270A270A270A270A270A270A8
:1000C800A270A270A270A270A270A270A270A27098
:1000D800A270A270A270A270A270A270A270A27088
:1000E8004200A270A270A270A270A270A270A27048
:1000F800A270A270A270A270A270A270A270A27068
:06010800FF00C3EFD9F077
:10F7B800001F001C001F001E001F001E001F001F4E
:10F7C800001E001F001E001F00819FE0FC407E807D
:10F7D800FC00000000000038FBDBFFFFFFFFFFFF1D
:10F7E800FFF2FFF0FFF2FF534420436172643A20B6
:10F7F800726561643531323A204352432065727232
:10F808006F7220282530347820213D202530347827
:10F818002C2072657472793D2564290A0D000A0D41
:10F8280053656C65637428756E696D6F6E36352027
:10F838003D20312C2062617369633635203D2032CA
:10F848002C206D6F6E383136203D203329203A2028
:10F85800006469736B5F696F63746C3A20706472DB
:10F86800763D25642C20636D643D25642C206275EB
:10F8780066663D3078256C783A207265733D25645C
:10F888000A0D00534420436172643A202072656176
:10F89800643531323A20616464723D25386C642CD9
:10F8A800206F6666733D25642C20636F756E743D0A
:10F8B80025640A0D00534420436172643A2077722C
:10F8C8006974653531323A20616464723D25386C5B
:10F8D800642C206F6666733D25642C20636F756EFB
:10F8E800743D25640A0D00534420436172643A2034
:10F8F80077726974653531323A206661696C65647E
:10F9080020746F2067657420746F6B656E2C20748B
:10F91800696D656F75740A0D005344204361726404
:10F928003A2077726974653531323A2074696D65A9
:10F938006F75742C20726573706F6E7365206973B0
:10F9480020253032780A0D00534420436172643A0E
:10F9580020434D4435382C2052333D253032782011
:10F96800253032782025303278202530327820250D
:10F978003032780A0D0025733A204552524F523AD8
:10F9880020636C6F636B2073706565642025642049
:10F998006973206E6F7420737570706F727465640C
:10F9A8000A0D00534420436172643A20434D4438A1
:10F9B8002C2052373D2530327820253032782025CA
:10F9C800303278202530327820253032780A0D0000
:10F9D8006469736B5F696F63746C3A2070647276E4
:10F9E8003D25642C20636D643D25643A204E6F7478
:10F9F8002068616E646C65642E0A0D006469736B1F
:10FA08005F726561643A2020706472763D25642CCB
:10FA180020736563746F723D256C642C20636F7569
:10FA28006E743D25640A0D006469736B5F777269B3
:10FA380074653A20706472763D25642C2073656382
:10FA4800746F723D256C642C20636F756E743D2550
:10FA5800640A0D00534420436172643A20434353BF
:10FA6800202843617264204361706163697479205E
:10FA78005374617475732920697320300A0D00531B
:10FA88004420436172643A20777269746535313273
:10FA98003A20435243206572726F7220287265744F
:10FAA80072793D2564290A0D00534420436172642C
:10FAB8003A204361726420706F77657220757020F8
:10FAC8007374617475732062697320697320300AD6
:10FAD8000D0072656164204D425220706172746934
:10FAE80074696F6E207461626C652061742073653F
:10FAF80063746F7220300A0D004D455A57363543EE
:10FB08005F52414D204669726D776172652052657A
:10FB180076312E32206F6E20454D555A38300053BD
:10FB28004420436172643A2053444843206F722052
:10FB38005344584320636172642064657465637438
:10FB480065640A0D0025733A204552524F523A20F7
:10FB58006D6F6465202564206973206E6F7420734F
:10FB68007570706F727465640A0D004C6F61642063
:10FB78002573203A20416472203D20253034782CAA
:10FB88002053697A65203D20253034780D0A0053CA
:10FB98004420436172643A20696E697469616C69D2
:10FBA8007A65202E2E2E20737563636565646564FF
:10FBB8000A0D00534420436172643A20756E6578DB
:10FBC80070656374656420726573706F6E73652009
:10FBD800253032780A0D004D656D6F72792024301A
:10FBE8003030303030202D20242530366C582025F8
:10FBF80064204B42204F4B0D0A005344204361724E
:10FC0800643A2041434D44343120726573706F6EFD
:10FC1800736520697320253032780A0D005344201B
:10FC2800436172643A2077726974653531323A20DB
:10FC3800746F6B656E20697320253032780A0D0069
:10FC4800534420436172643A20434D44353920724D
:10FC58006573706F6E736520697320253032780A7A
:10FC68000D00706172746974696F6E2073746172CB
:10FC7800747320617420736563746F7220256C64DB
:10FC88000A0D00665F777269746528293A20455223
:10FC9800524F52207265733D25642C206E3D2564B9
:10FCA8000A0D00665F7265616428293A2045525240
:10FCB8004F52207265733D25642C206E3D25640AE1
:10FCC8000D006661696C656420746F2077726974D1
:10FCD8006520736563746F7220256C640A0D006675
:10FCE80061696C656420746F207265616420736556
:10FCF80063746F7220256C640A0D000A0D5344204A
:10FD0800436172643A20696E697469616C697A65E5
:10FD1800202E2E2E0A0D0050726F6772616D2046DC
:10FD2800696C65204C6F6164204572726F722E0D8C
:10FD38000A004661696C656420746F206D6F756E8A
:10FD48007420534420436172642E0A0D00554E4BB3
:10FD58004E4F574E20756E696D6F6E20434D442887
:10FD680025303278290D0A00534420436172643AE1
:10FD78002041434D4434312C2052313D25303278D6
:10FD88000A0D006661696C656420746F2072656194
:10FD98006420736563746F7220300A0D000A4D6524
:10FDA8006D6F7279206572726F72206174202425DC
:10FDB80030366C580A0D006469736B5F696E69743C
:10FDC80069616C697A65282564292E2E2E0A0D0032
:10FDD8004D656D6F72792024303030303030202DF1
:10FDE80020242530366C580D00534420436172643A
:10FDF8003A206E6F74207375706F70727465640A40
:10FE08000D00534420436172643A20434D44302C22
:10FE18002052313D253032780A0D00202020202044
:10FE280020202020202020202020202020202020CA
:10FE380020200D007761697420666F722070726FE0
:10FE48006772616D6D6572202E2E2E0D002573254B
:10FE580035337320434845434B53554D3A2025309D
:10FE680032780A0D00706879736963616C20647276
:10FE78006976657220213D20300A0D000A4D656DB6
:10FE88006F727920777261702061726F756E642E5F
:10FE98000A0D00665F6C7365656B28293A20455228
:10FEA800524F522025640A0D006E6F20464154338C
:10FEB8003220706172746974696F6E0A0D00665F32
:10FEC80073796E6328293A204552524F522025648F
:10FED8000A0D004D656D6F7279205772697465203F
:10FEE8004572726F720D0A00557365204E434F318B
:10FEF8002025322E33664D487A0D0A006E6F204D4C
:10FF08004252207369676E61747572650A0D0053F9
:10FF18004420436172643A2074696D656F75740A90
:10FF28000D006E6F2076616C696420766F6C756D5C
:10FF3800650A0D00534420436172643A207265617A
:10FF480064792E0A0D005350495F53445F636F6E06
:10FF5800666967757265002A2B2C3A3B3C3D3E5B0F
:10FF68005D7C223F7F004E6F2053442043617264C2
:10FF78003F0A0D00554D4F4E5F5736352E42494EBC
:10FF880000426F6172643A2025730A0D00424153A2
:10FF9800494336352E42494E004D4F4E3831362EA4
:10FFA80042494E0046415433322020200025732513
:10FFB80030366C783A002573253034783A00286E4C
:10FFC800756C6C29002025303278006661743A20FF
:10FFD800006275663A2000303A2F2F0052443A20CA
:10FFE8000057523A200053443A2000696E66006E6A
:07FFF800616E00257300009B
:020000040001F9
:1000000083C6D9F484C6DAF4DE6ADD6A81C604F5F3
:1000100082C605F520ECC5F004C592F605C593F639
:10002000060193BF18EF80F016EF80F01BEF80F011
:100030000B0E61EF85F0D8909235D96E9335DA6E5C
:10004000330ED926070EDA22DEC4ADF6DDC4AEF6D5
:10005000AD51AE11D8A42FEF80F031EF80F034EF26
:1000600080F00C0E61EF85F083C6D9F484C6DAF413
:10007000ADC6DEF4AEC6DDF48591ADC6D9F4AEC62C
:10008000DAF4DF50D8B447EF80F049EF80F070EF3A
:1000900080F020EE01F0AD51D926AE51DA22DF50CA
:1000A00073ECDFF00601A26FA2B159EF80F05BEFB5
:1000B00080F070EF80F08551D8B461EF80F063EF8D
:1000C00080F06DEF80F0A2A568EF80F06AEF80F01D
:1000D0006DEF80F00A0E61EF85F0000E61EF85F0A4
:1000E000ADC6D9F4AEC6DAF4DF6A20EE01F0AD5148
:1000F000D926AE51DA22DF504EECC4F00601A26FD1
:10010000A2A185EF80F087EF80F08AEF80F0030EE8
:1001100061EF85F08551D8B490EF80F092EF80F0D8
:100120009BEF80F0A2A597EF80F099EF80F09BEF16
:1001300080F06AEF80F0ADC62EF6AEC62FF6000E48
:10014000316F000E306FB3ECBFF02EC6ABF62FC68A
:10015000ACF6040E0601AB19AC11D8A4B2EF80F0D6
:10016000B4EF80F0B7EF80F0010E61EF85F0AC5195
:1001700009E1020EAB5DD8A0C0EF80F0C2EF80F0C5
:10018000C5EF80F00D0E61EF85F020EE2CF0AD5143
:10019000D926AE51DA22DEC49EF6DEC49FF6DEC456
:1001A000A0F6DEC4A1F63B0EAD25046E000EAE2116
:1001B000056E2BECE0F0020E05180410D8B4E3EF46
:1001C00080F0E5EF80F0E7EF80F0C2EF80F0460EC0
:1001D0000601AD25046E000EAE21056E2BECE0F09D
:1001E00004C5A7F605C5A8F60601A96BAA6BA75119
:1001F000A811A911AA11D8A400EF81F002EF81F093
:1002000012EF81F0540EAD25046E000EAE21056E86
:100210007AECD6F004C5A7F605C5A8F606C5A9F67A
:1002200007C5AAF6060120EE18F0AD51D926AE5149
:10023000DA22A7C6DEF4A8C6DEF4A9C6DEF4AAC692
:10024000DEF420EE40F0AD51D926AE51DA2210EEA8
:1002500003F0AD51E126AE51E222DFC4E7F420EE17
:1002600003F0AD51D926AE51DA22DE04D8B43BEF0B
:1002700081F03DEF81F04EEF81F020EE03F0AD51C3
:10028000D926AE51DA22020EDE18D8B44AEF81F038
:100290004CEF81F04EEF81F0C2EF80F0A7C604F57D
:1002A000A8C605F5A9C606F5AAC607F520EE03F00F
:1002B000AD51D926AE51DA22DF50866F8651086ED5
:1002C000096A0A6A0B6A44ECDCF004C5A7F605C5A6
:1002D000A8F606C5A9F607C5AAF6060120EE3DF068
:1002E000AD51D926AE51DA22DF50866F876B20EEF2
:1002F0000AF0AD51D926AE51DA2286C6DEF487C6A1
:10030000DDF420EE0AF0AD51D926AE51DA22DE50EE
:10031000DE10D8B48EEF81F090EF81F0C2EF80F064
:1003200020EE0AF0AD51D926AE51DA22DEC486F6AF
:10033000DDC487F620EE0AF0AD51D926AE51DA229F
:10034000DEC488F6DDC489F6FF0E88258A6FFF0EAD
:1003500089218B6F86518A158C6F87518B158D6F14
:100360008C518D11D8B4B7EF81F0B9EF81F0BBEFAC
:1003700081F0C2EF80F0410EAD25046E000EAE217B
:10038000056E2BECE0F0060120EE08F0AD51D92609
:10039000AE51DA2204C5DEF405C5DDF420EE08F026
:1003A000AD51D926AE51DA22DEC486F6DDC487F619
:1003B0000F0E8617000E871786518711D8B4E3EF0A
:1003C00081F0E5EF81F0E7EF81F0C2EF80F0430EBE
:1003D000AD25046E000EAE21056E2BECE0F004C5D9
:1003E0009AF605C59BF606019C6B9D6B9A519B1175
:1003F0009C119D11D8A4FFEF81F001EF82F011EF65
:1004000082F0500EAD25046E000EAE21056E7AEC22
:10041000D6F004C59AF605C59BF606C59CF607C539
:100420009DF63E0E0601AD25046E000EAE21056E52
:100430002BECE0F004C598F605C599F60601985135
:100440009911D8A426EF82F028EF82F02AEF82F0EB
:10045000C2EF80F020EE08F0AD51D926AE51DA227D
:10046000DEC486F6DDC487F6040E886FD890873325
:100470008633882F36EF82F098518625896F9951FF
:1004800087218A6F8B6BD8B08B2B8C6BA7518925FA
:10049000946FA8518A21956FA9518B21966FAA510B
:1004A0008C21976F94519A5D95519B5996519C5907
:1004B00097519D59D8B05FEF82F061EF82F063EF02
:1004C00082F0C2EF80F094519A5D046E95519B5971
:1004D000056E96519C59066E97519D59076E20EEF8
:1004E0000AF0AD51D926AE51DA22DEC486F6DDC45B
:1004F00087F686C608F587C609F50A6A0B6A8AEC8C
:10050000D8F004C5A3F605C5A4F606C5A5F607C52B
:10051000A6F60601A351A411A511A611D8A493EF24
:1005200082F095EF82F097EF82F0C2EF80F0000E3C
:10053000AC6F000EAB6FF60EA35DFF0EA459FF0E5D
:10054000A5590F0EA659D8B0A8EF82F0AAEF82F0F5
:10055000AEEF82F0000EAC6F030EAB6FA651A5118B
:1005600009E1F60EA35DFF0EA459D8B0BAEF82F0F0
:10057000BCEF82F0C0EF82F0000EAC6F020EAB6FEA
:10058000A651A51109E1F60EA35D0F0EA459D8B02E
:10059000CCEF82F0CEEF82F0D2EF82F0000EAC6FA3
:1005A000010EAB6FAB51AC11D8A4D9EF82F0DBEFE9
:1005B00082F0DDEF82F0C2EF80F0020EA325866F9D
:1005C000000EA421876F000EA521886F000EA621C2
:1005D000896F20EE14F0AD51D926AE51DA2286C6CD
:1005E000DEF487C6DEF488C6DEF489C6DEF420EECB
:1005F0001CF0AD51D926AE51DA229EC6DEF49FC65C
:10060000DEF4A0C6DEF4A1C6DEF498519E25866F06
:1006100099519F21876F000EA021886F000EA121A4
:10062000896F20EE20F0AD51D926AE51DA2286C670
:10063000DEF487C6DEF488C6DEF489C6DEF49451A3
:100640009E25866F95519F21876F9651A021886FB7
:100650009751A121896F20EE28F0AD51D926AE51D6
:10066000DA2286C6DEF487C6DEF488C6DEF489C6E2
:10067000DEF4030EAB19AC11D8A441EF83F043EFC5
:1006800083F0A0EF83F05A0EAD25046E000EAE216C
:10069000056E2BECE0F004500510D8B452EF83F057
:1006A00054EF83F056EF83F0C2EF80F0060120EEA6
:1006B00008F0AD51D926AE51DA22DE50DE10D8B4A2
:1006C00064EF83F066EF83F068EF83F0C2EF80F0B1
:1006D0005C0EAD25046E000EAE21056E7AECD6F0F0
:1006E000060120EE24F0AD51D926AE51DA2204C520
:1006F000DEF405C5DEF406C5DEF407C5DEF420EE43
:1007000014F0AD51D926AE51DA22DEC486F6DEC42D
:1007100087F6DEC488F6DEC489F6020ED8908637E6
:10072000873788378937E82E8EEF83F086C68EF6B6
:1007300087C68FF688C690F689C691F640EF84F09A
:1007400020EE08F0AD51D926AE51DA22DE50DE108F
:10075000D8A4ADEF83F0AFEF83F0B1EF83F0C2EF39
:1007600080F020EE20F0AD51D926AE51DA22DEC461
:1007700086F6DEC487F6DEC488F6DEC489F6A751A5
:1007800086258A6FA85187218B6FA95188218C6F8C
:10079000AA5189218D6F20EE24F0AD51D926AE519A
:1007A000DA228AC6DEF48BC6DEF48CC6DEF48DC691
:1007B000DEF4020EAB19AC11D8B4E1EF83F0E3EF35
:1007C00083F029EF84F020EE14F0AD51D926AE511C
:1007D000DA22DEC486F6DEC487F6DEC488F6DEC41E
:1007E00089F6010E86158A6F000E87158B6F000E35
:1007F00088158C6F000E89158D6F20EE14F0AD51A9
:10080000D926AE51DA22DEC404F5DEC405F5DEC415
:1008100006F5DEC407F5030E086E000E096E000E25
:100820000A6E000E0B6E44ECDCF0D89007320632F4
:100830000532043206018A5104248E6F8B51052043
:100840008F6F8C510620906F8D510720916F40EF74
:1008500084F020EE14F0AD51D926AE51DA22DEC478
:1008600086F6DEC487F6DEC488F6DEC489F6D89044
:1008700086358E6F87358F6F8835906F8935916F8C
:10088000FF0E8E25866F010E8F21876F000E90213F
:10089000886F000E9121896F0A0E54EF84F0D89072
:1008A0008933883387338633E82E4FEF84F020EE88
:1008B00018F0AD51D926AE51DA228651DE5C87514F
:1008C000DE588851DE588951DE58D8B06AEF84F07E
:1008D0006CEF84F06EEF84F0C2EF80F020EE10F049
:1008E000AD51D926AE51DA22FF0EDE6EFF0EDE6E5E
:1008F000FF0EDE6EFF0EDD6EDD52DD5210EE0CF0EF
:10090000AD51E126AE51E222DEC4E6F4DEC4E6F4E7
:10091000DEC4E6F4DEC4E6F420EE05F0AD51D926DF
:10092000AE51DA22800EDF6E030EAB19AC11D8A4E3
:100930009CEF84F09EEF84F04BEF85F0600EAD25C8
:10094000046E000EAE21056E2BECE0F004040510E1
:10095000D8A4ADEF84F0AFEF84F04BEF85F0ADC6D7
:1009600015F6AEC616F6010E06019E25176F000E8F
:100970009F21186F000EA021196F000EA1211A6F80
:1009800088ECD4F00009D8A4C8EF84F0CAEF84F052
:100990004BEF85F0060120EE05F0AD51D926AE51A2
:1009A000DA22DF6A2E0EAD25046E020EAE21056E30
:1009B0002BECE0F0550E041807E1AA0E0518D8A498
:1009C000E4EF84F0E6EF84F04BEF85F0300E0601A3
:1009D000AD25046E000EAE21056E7AECD6F0520EF7
:1009E00004180DE1520E05180AE1610E061807E120
:1009F000410E0718D8A4FFEF84F001EF85F04BEF0C
:100A000085F0140E0601AD25046E020EAE21056EB2
:100A10007AECD6F0720E04180DE1720E05180AE198
:100A2000410E061807E1610E0718D8A41AEF85F0E9
:100A30001CEF85F04BEF85F0180E0601AD25046E16
:100A4000020EAE21056E7AECD6F0060120EE10F013
:100A5000AD51D926AE51DA2204C5DEF405C5DEF467
:100A600006C5DEF407C5DEF41C0EAD25046E020ECD
:100A7000AE21056E7AECD6F0060120EE0CF0AD51F9
:100A8000D926AE51DA2204C5DEF405C5DEF406C56A
:100A9000DEF407C5DEF4ADC6D9F4AEC6DAF4ABC6F3
:100AA000DFF40701314B322B060120EE06F0AD5189
:100AB000D926AE51DA2231C7DEF432C7DDF46DEF4C
:100AC00080F01200000E0501886F62C589F563C5CC
:100AD0008AF564C58BF565C58CF58CBF74EF85F020
:100AE00072EF85F088EF85F0010E886F89C504F5F7
:100AF0008AC505F58BC506F58CC507F50FECE0F04A
:100B000004C589F505C58AF506C58BF507C58CF5BD
:100B1000000E05018E6F000E8D6F2FC77CF530C75C
:100B20007DF58851D8B497EF85F099EF85F0ADEF5A
:100B300085F08851D8A49FEF85F0A1EF85F0A7EF4D
:100B400085F0000E6E6F2B0E6D6FABEF85F0000E13
:100B50006E6F2D0E6D6F6DC588F589C504F58AC55C
:100B600005F58BC506F58CC507F562ECD1F00404DC
:100B70000510D8A4BEEF85F0C0EF85F0F3EF85F047
:100B800005018851D8B4C7EF85F0C9EF85F0D2EFE1
:100B900085F088C53FF77C07D8A07D07000E8E6FD3
:100BA000010E8D6F3F0E8D25046E070E8E21056E92
:100BB000F30E066EFF0E076ED5ECDFF00501FD0E9D
:100BC0007C27FF0E7D2360C515F561C516F53F0E28
:100BD000176E070E186E7CC519F57DC51AF5DCEC8D
:100BE000D8F093EF8AF089C504F58AC505F58BC561
:100BF00006F58CC507F562ECD1F004500510D8A4B9
:100C000004EF86F006EF86F026EF86F005018851A6
:100C1000D8B40DEF86F00FEF86F018EF86F088C598
:100C20003FF77C07D8A07D07000E8E6F010E8D6FF9
:100C30003F0E8D25046E070E8E21056EF70E066E93
:100C4000FF0E076ED5ECDFF0DEEF85F0000E05013C
:100C50008F6F000E906F800E916F3F0E926F000E9F
:100C6000776F000E766F89C504F58AC505F58BC5CB
:100C700006F58CC507F5000E086E000E096E000E15
:100C80000A6E000E0B6EE2ECD7F0D8B04AEF86F099
:100C90004CEF86F02BEF87F059EF86F078C58FF593
:100CA00079C590F57AC591F57BC592F50501764B2E
:100CB000772B8FC512F590C513F591C514F592C524
:100CC00015F5000E166E000E176E200E186E410EF2
:100CD000196E4DECA7F012C578F513C579F514C55A
:100CE0007AF515C57BF505017851895D046E79515A
:100CF0008A59056E7A518B59066E7B518C59076E55
:100D00005FECDDF007BE90EF86F00750061005108F
:100D100009E1020E045CD8A090EF86F092EF86F015
:100D20004EEF86F078C52BF579C52CF57AC52DF5F3
:100D30007BC52EF589C52FF58AC530F58BC531F5F4
:100D40008CC532F55FECCFF0D8A0A9EF86F0ABEF01
:100D500086F04EEF86F005018F51895D046E90514B
:100D60008A59056E91518B59066E92518C59076EB6
:100D70005FECDDF007BECAEF86F0075006100510E5
:100D800007E1020E045CD8B0C8EF86F0CAEF86F027
:100D900012EF87F08FC589F590C58AF591C58BF55F
:100DA00092C58CF52BEF87F08FC52BF590C52CF5F0
:100DB00091C52DF592C52EF5000E2F6E000E306EEA
:100DC000200E316E410E326E58ECABF02BC58FF514
:100DD0002CC590F52DC591F52EC592F50501760728
:100DE000D8A077078F51895D046E90518A59056E9E
:100DF00091518B59066E92518C59076E5FECDDF064
:100E000007BE10EF87F007500610051007E1020E2D
:100E1000045CD8B00EEF87F010EF87F012EF87F088
:100E2000CAEF86F089C52BF58AC52CF58BC52DF543
:100E30008CC52EF58FC52FF590C530F591C531F5D0
:100E400092C532F55FECCFF0D8A029EF87F02BEFF9
:100E500087F0D4EF86F066C570F570C571F55BBE9E
:100E600034EF87F036EF87F03CEF87F05AC569F52D
:100E70005BC56AF541EF87F0000E05016A6F060E4B
:100E8000696F69C574F56AC575F50501744B752BF5
:100E9000660E7119D8A44FEF87F051EF87F071EF0C
:100EA00087F077BF58EF87F056EF87F064EF87F051
:100EB000000E8F6F000E906F800E916F3F0E926F3D
:100EC000000E776F000E766F670E7019D8B46BEF57
:100ED00087F06DEF87F071EF87F0765174277751C7
:100EE0007523000E876F000E866F89C57EF58AC553
:100EF0007FF58BC580F58CC581F58FC578F590C5DC
:100F000079F591C57AF592C57BF502EF88F07EC53B
:100F10002BF57FC52CF580C52DF581C52EF58FC528
:100F20002FF590C530F591C531F592C532F558ECE5
:100F3000ABF02BC544F52CC545F52DC546F52EC5A2
:100F400047F5AAECBEF044C582F545C583F546C514
:100F500084F547C585F582C504F583C505F584C5C7
:100F600006F585C507F5DCECCEF004C572F505C5C0
:100F700073F57EC52BF57FC52CF580C52DF581C594
:100F80002EF582C516F583C517F584C518F585C5F8
:100F900019F58FC512F590C513F591C514F592C5D5
:100FA00015F54DECA7F012C52FF513C530F514C596
:100FB00031F515C532F5C6ECDEF02BC57EF52CC536
:100FC0007FF52DC580F52EC581F58FC52BF590C514
:100FD0002CF591C52DF592C52EF5000E2F6E000E45
:100FE000306E200E316E410E326E58ECABF02BC5D8
:100FF0008FF52CC590F52DC591F52EC592F50501FF
:10100000864B872B7451865D8751800A586E7551C7
:10101000800A5858D8A00FEF88F011EF88F087EFBA
:1010200087F08FC512F590C513F591C514F592C5DB
:1010300015F5000E166E000E176EA00E186E400EFF
:10104000196E4DECA7F012C582F513C583F514C5D2
:1010500084F515C585F57EC52BF57FC52CF580C5B6
:101060002DF581C52EF582C52FF583C530F584C5D4
:1010700031F585C532F55FECCFF0D8B042EF88F09E
:1010800044EF88F04FEF88F0000E0501826F000EEC
:10109000836F000E846F000E856F78EF88F07EC539
:1010A00004F57FC505F580C506F581C507F582C540
:1010B00008F583C509F584C50AF585C50BF5E2EC8D
:1010C000D7F0D8A066EF88F068EF88F078EF88F066
:1010D000050172B16EEF88F070EF88F078EF88F05C
:1010E000000E826F000E836F000E846F000E856FFE
:1010F00089C504F58AC505F58BC506F58CC507F5C8
:1011000082C508F583C509F584C50AF585C50BF5C3
:10111000D8ECA2F004C57EF505C57FF506C580F5BF
:1011200007C581F57EC52BF57FC52CF580C52DF54E
:1011300081C52EF5000E166E000E176E200E186E6D
:10114000410E196E78C512F579C513F57AC514F5F7
:101150007BC515F54DECA7F012C52FF513C530F57D
:1011600014C531F515C532F55FECCFF0D8A0BBEF53
:1011700088F0BDEF88F0E6EF88F00501764B772B1D
:1011800078C512F579C513F57AC514F57BC515F543
:10119000000E166E000E176E200E186E410E196EA0
:1011A0004DECA7F012C578F513C579F514C57AF59D
:1011B00015C57BF5660E05017119D8A4E2EF88F01C
:1011C000E4EF88F0E6EF88F0744B752B78C58FF567
:1011D00079C590F57AC591F57BC592F576C567F529
:1011E00077C568F5000E05016F6F000E6C6F000E7D
:1011F0006B6F000E876F000E866FE4EF89F07EC57F
:101200002BF57FC52CF580C52DF581C52EF58FC535
:101210002FF590C530F591C531F592C532F558ECF2
:10122000ABF02BC544F52CC545F52DC546F52EC5AF
:1012300047F5AAECBEF044C582F545C583F546C521
:1012400084F547C585F582C504F583C505F584C5D4
:1012500006F585C507F5DCECCEF005BE3BEF89F061
:10126000055007E10A0E045CD8B039EF89F03BEF76
:1012700089F04BEF89F082C504F583C505F584C577
:1012800006F585C507F5DCECCEF004C572F505C59D
:1012900073F550EF89F0000E0501736F090E726F40
:1012A00005016F51D8A457EF89F059EF89F081EF0C
:1012B00089F068BF60EF89F05EEF89F081EF89F017
:1012C0003F0E8D25D96E070E8E21DA6E2E0EDF6E43
:1012D0008D4B8E2B7C07D8A07D07010E6F6F81EFA1
:1012E00089F03F0E8D25D96E070E8E21DA6E300EF5
:1012F000DF6E8D4B8E2B7C07D8A07D076B07D8A0A7
:101300006C076B516C11D8A488EF89F08AEF89F0D3
:1013100071EF89F03F0E8D25D96E070E8E21DA6EA2
:101320007251300FDF6E8D4B8E2B7C07D8A07D075E
:101330007EC52BF57FC52CF580C52DF581C52EF515
:1013400082C516F583C517F584C518F585C519F549
:101350008FC512F590C513F591C514F592C515F515
:101360004DECA7F012C52FF513C530F514C531F5B6
:1013700015C532F5C6ECDEF02BC57EF52CC57FF524
:101380002DC580F52EC581F58FC52BF590C52CF5A3
:1013900091C52DF592C52EF5000E2F6E000E306E04
:1013A000200E316E410E326E58ECABF02BC58FF52E
:1013B0002CC590F52DC591F52EC592F50501670751
:1013C000D8A06807864B872B7451865D8751800AA9
:1013D000586E7551800A5858D8B0F1EF89F0F3EF84
:1013E00089F001EF8AF08EBFFFEF89F08E5109E19D
:1013F0004B0E8D5DD8A0FFEF89F001EF8AF0FFEF73
:1014000088F0000E876F4F0E866F3F0E8625D96ECF
:10141000070E8721DA6EDF6A3F0E586E070E596E8F
:101420008D51585E8E51595A86515824046E8751F9
:101430005920056E3F0E066E070E076E8DC508F526
:101440008EC509F52EECDEF005018D51865D8D6FA0
:101450008E5187598E6F8851D8A431EF8AF034EFBE
:101460008AF0010E35EF8AF0000E866F876B5CA262
:101470003CEF8AF03EEF8AF06CEF8AF04EEF8AF094
:101480008D07D8A08E073F0E8D25D96E070E8E21B1
:10149000DA6E300EDF6E7C07D8A07D077C51865D4A
:1014A0008751800A586E7D51800A5858D8B05BEF3A
:1014B0008AF05DEF8AF06CEF8AF08D51865D87517E
:1014C000800A586E8E51800A5858D8A06AEF8AF068
:1014D0006CEF8AF040EF8AF08851D8B472EF8AF04E
:1014E00074EF8AF07FEF8AF08D07D8A08E073F0E49
:1014F0008D25D96E070E8E21DA6E88C5DFF48651F0
:101500007C5F87517D5B60C515F561C516F53F0EA3
:101510008D25176E070E8E21186E7CC519F57DC5B9
:101520001AF5DCECD8F0120060C677F661C678F6E2
:1015300064C6D9F465C6DAF4DE6ADD6A5EC6BCF557
:101540005FC6BDF5870E0501BE6F060EBF6F62EC6C
:10155000D0F00601766F7651D8A4B1EF8AF0B3EFE0
:101560008AF0C3EF8AF020EE0FF05E51D9265F516A
:10157000DA22DF50766F7651D8B4C1EF8AF0C3EF2C
:101580008AF0C6EF8AF07651D7EF8EF020EE0EF09B
:101590005E51D9265F51DA22DFB2D1EF8AF0D3EF64
:1015A0008AF0D6EF8AF0070ED7EF8EF020EE10F01B
:1015B0005E51D9265F51DA2210EE10F05E51E1261D
:1015C0005F51E222E6C46AF6E6C46BF6E6C46CF646
:1015D000E6C46DF662516A256E6F63516B216F6FC1
:1015E000000E6C21706F000E6D21716FDE506E5D0C
:1015F000DE506F59DE507059DE507159D8B003EF8C
:101600008BF005EF8BF013EF8BF020EE10F05E51B6
:10161000D9265F51DA22DEC466F6DDC467F6661DA0
:10162000626F671D636F62516311D8A41AEF8BF06C
:101630001CEF8BF01EEF8BF0CEEF8EF020EE10F053
:101640005E51D9265F51DA22FF0EDE14666F010E5D
:10165000DE14676F000EDE14686F000EDE14696F13
:101660006651671168116911D8A439EF8BF03BEF0F
:101670008BF012EF8EF020EE10F05E51D9265F5104
:10168000DA22DEC466F6DEC467F6DEC468F6DEC4BF
:1016900069F60A0E51EF8BF0D890693368336733DF
:1016A0006633E82E4CEF8BF020EE0AF08751D926F6
:1016B0008851DA22DEC46AF6DDC46BF6FF0E6A25B5
:1016C0006C6FFF0E6B216D6F66516C15796F6751F2
:1016D0006D157A6F79517A11D8A471EF8BF073EF91
:1016E0008BF03BEF8CF020EE10F05E51D9265F516D
:1016F000DA22DE50DE10DE10DE10D8A482EF8BF08E
:1017000084EF8BF0B5EF8BF020EE06F05E51D9261A
:101710005F51DA22DEC47DF6DEC47EF6DEC47FF6DB
:10172000DEC480F67D517E117F118011D8A49BEF1D
:101730008BF09DEF8BF0D1EF8BF05EC641F65FC66C
:1017400042F6000E436F000E446F000E456F000E10
:10175000466F8AEC9DF041C67DF642C67EF643C6D2
:101760007FF644C680F6D1EF8BF05EC641F65FC6C9
:1017700042F620EE14F05E51D9265F51DA22DEC423
:1017800043F6DEC444F6DEC445F6DEC446F68AEC13
:101790009DF041C67DF642C67EF643C67FF644C63E
:1017A00080F606017D517E117F118011D8A4DBEFF8
:1017B0008BF0DDEF8BF0DFEF8BF0CEEF8EF07D0561
:1017C0007E117F118011D8A4E8EF8BF0EAEF8BF047
:1017D000F5EF8BF020EE0FF05E51D9265F51DA2243
:1017E000020EDF6E020ED7EF8EF07D290AE17E2910
:1017F00008E17F2906E18029D8A401EF8CF003EFEE
:101800008CF00EEF8CF020EE0FF05E51D9265F5178
:10181000DA22010EDF6E010ED7EF8EF020EE14F00B
:101820005E51D9265F51DA227DC6DEF47EC6DEF433
:101830007FC6DEF480C6DEF420EE06F05E51D926C7
:101840005F51DA22DE50DE10DE10DE10D8A42BEF5E
:101850008CF02DEF8CF03BEF8CF020EE06F05E511B
:10186000D9265F51DA227DC6DEF47EC6DEF47FC65D
:10187000DEF480C6DEF420EE0EF05E51D9265F5114
:10188000DA22DFAE46EF8CF048EF8CF08BEF8CF075
:10189000220E5E250501F76F000E06015F2105018E
:1018A000F86F060120EE18F05E51D9265F51DA225A
:1018B000DEC4F9F5DEC4FAF5DEC4FBF5DEC4FCF5E2
:1018C000000E0501FE6F010EFD6F060120EE01F016
:1018D0008751D9268851DA22DF5037ECD8F0000939
:1018E000D8B475EF8CF077EF8CF082EF8CF00601B6
:1018F00020EE0FF05E51D9265F51DA22010EDF6E25
:101900000BEF8CF0060120EE0EF05E51D9265F51F0
:10191000DA227F0EDF1687C610F588C611F520EE95
:1019200014F05E51D9265F51DA22DEC412F5DEC40E
:1019300013F5DEC414F5DEC415F5EEECD4F010C5D5
:1019400083F611C584F612C585F613C586F6060121
:101950008351841185118611D8A4B1EF8CF0B3EFB7
:101960008CF0BDEF8CF020EE0FF05E51D9265F5168
:10197000DA22020EDF6EF2EF8BF0795183277A5173
:101980008423000E8523000E862362C666F663C696
:1019900067F6090E686FD89067336633682FCBEF10
:1019A0008CF066C67BF667C67CF67B517C11D8B49A
:1019B000DCEF8CF0DEEF8CF0A2EF8DF07B5179251F
:1019C000666F7C517A21676F20EE0AF08751D92625
:1019D0008851DA226651DE5C6751DE58D8B0F3EFE9
:1019E0008CF0F5EF8CF005EF8DF020EE0AF08751CA
:1019F000D9268851DA22DEC466F6DDC467F679514D
:101A0000665D7B6F7A5167597C6F77C6F7F578C64C
:101A1000F8F583C6F9F584C6FAF585C6FBF586C6E2
:101A2000FCF57BC6FDF57CC6FEF520EE01F0875186
:101A3000D9268851DA22DF5037ECD8F00009D8B423
:101A400024EF8DF026EF8DF031EF8DF0060120EEC2
:101A50000FF05E51D9265F51DA22010EDF6E0BEFD7
:101A60008CF006017B51666F7C51676F686B696B08
:101A700020EE18F05E51D9265F51DA22DEC46AF6F4
:101A8000DEC46BF6DEC46CF6DEC46DF683516A5DAF
:101A90006E6F84516B596F6F85516C59706F8651A1
:101AA0006D59716F66516E5D67516F59685170590C
:101AB00069517159D8B05FEF8DF061EF8DF091EF02
:101AC0008DF0220E5E25046E000E5F21056E20EE65
:101AD00018F05E51D9265F51DA22DEC466F6DDC405
:101AE00067F68351665F8451675B090ED89066374D
:101AF0006737E82E76EF8DF066517725066E6751D1
:101B00007821076E020E096E000E086E2EECDEF0D4
:101B1000060120EE0EF05E51D9265F51DA227F0ECB
:101B2000DF167BC666F67CC667F6090ED890663768
:101B30006737E82E96EF8DF066C681F667C682F6A7
:101B400068EF8EF020EE18F05E51D9265F51DA2250
:101B50008351DE180FE18451DE180CE18551DE1847
:101B600009E18651DE18D8B4B8EF8DF0BAEF8DF0E8
:101B700003EF8EF020EE0AF05E51D9265F51DA2293
:101B800010EE10F05E51E1265F51E222DE50E65C7D
:101B9000DE50E658DE50E658DE50E658D8B0D3EFB7
:101BA0008DF0D5EF8DF003EF8EF0220E5E25006FE5
:101BB000000E5F21016F83C602F684C603F685C658
:101BC00004F686C605F6000E076F010E066F20EEBE
:101BD00001F08751D9268851DA22DF508BECD7F0FB
:101BE0000009D8B4F6EF8DF0F8EF8DF003EF8EF02A
:101BF000060120EE0FF05E51D9265F51DA22010E68
:101C0000DF6E0BEF8CF0060120EE18F05E51D92646
:101C10005F51DA2283C6DEF484C6DEF485C6DEF4C4
:101C200086C6DEF420EE10F05E51D9265F51DA222E
:101C3000DEC466F6DDC467F6FF0E6615686F010E3A
:101C40006715696F68510008816F6951D8A0E82A4B
:101C50000208826F8151625D82516359D8B033EFBF
:101C60008EF035EF8EF039EF8EF062C681F663C6E6
:101C700082F620EE10F05E51D9265F51DA22DEC4E2
:101C800066F6DDC467F6FF0E6615686F010E671510
:101C9000696F68515E256A6F69515F216B6F220E13
:101CA0006A25046E000E6B21056E77C606F578C6B0
:101CB00007F581C608F582C609F52EECDEF00601AF
:101CC00020EE0EF05E51D9265F51DA22000EDB8E37
:101CD0008151625F8251635B64C6D9F465C6DAF4F0
:101CE0008151DE268251DD2281517727825178236E
:101CF00020EE10F05E51D9265F51DA228151DE26A6
:101D00008251DE22000EDE22DE2220EE10F05E5135
:101D1000D9265F51DA2210EE0AF05E51E1265F51BA
:101D2000E222DE50E65CDE50E658DE50E658DE5039
:101D3000E658D8A09EEF8EF0A0EF8EF0B0EF8EF0B8
:101D400020EE0AF05E51D9265F51DA22DEC472F627
:101D5000DEC473F6DEC474F6DEC475F6BEEF8EF034
:101D600020EE10F05E51D9265F51DA22DEC472F601
:101D7000DEC473F6DEC474F6DEC475F620EE0AF037
:101D80005E51D9265F51DA2272C6DEF473C6DEF4E4
:101D900074C6DEF475C6DEF413EF8BF020EE0EF0A1
:101DA0005E51D9265F51DA22000EDB8C000E120044
:101DB0005EC6BCF55FC6BDF5810E0501BE6F060EA1
:101DC000BF6F62ECD0F006017C6F7C51D8A4EBEFC2
:101DD0008EF0EDEF8EF0F5EF8EF020EE0FF05E510D
:101DE000D9265F51DA22DF507C6F7C51D8B4FBEFEB
:101DF0008EF0FDEF8EF000EF8FF07C51DEEF92F071
:101E000020EE0AF05E51D9265F51DA226051DE5C85
:101E10006151DE586251DE586351DE58D8B013EF7D
:101E20008FF015EF8FF030EF8FF020EE0EF05E5157
:101E3000D9265F51DA22DFB220EF8FF022EF8FF048
:101E400030EF8FF020EE0AF05E51D9265F51DA2292
:101E5000DEC460F6DEC461F6DEC462F6DEC463F69C
:101E600020EE10F05E51D9265F51DA22DEC474F6FE
:101E7000DEC475F6DEC476F6DEC477F6000E786F43
:101E8000000E796F000E7A6F000E7B6F20EE10F05F
:101E90005E51D9265F51DA2278C6DEF479C6DEF4C7
:101EA0007AC6DEF47BC6DEF4605161116211631103
:101EB000D8B45DEF8FF05FEF8FF0E3EF91F020EE9D
:101EC0000AF08151D9268251DA22DEC464F6DDC4DB
:101ED00065F66451666F6551676F686B696B090ED3
:101EE000D8906637673768376937E82E70EF8FF01C
:101EF00066C67DF667C67EF668C67FF669C680F65A
:101F00007451751176117711D8B489EF8FF08BEF7A
:101F10008FF028EF90F0FF0E6025046EFF0E612118
:101F2000056EFF0E6221066EFF0E6321076E7DC6F1
:101F300008F57EC609F57FC60AF580C60BF58AEC62
:101F4000D8F004C564F605C565F606C566F607C58E
:101F500067F6FF0E06017425046EFF0E7521056EEF
:101F6000FF0E7621066EFF0E7721076E7DC608F5FF
:101F70007EC609F57FC60AF580C60BF58AECD8F057
:101F800004500601645D05506559065066590750B6
:101F90006759D8A0CEEF8FF0D0EF8FF028EF90F0F8
:101FA000FF0E7D25646FFF0E7E21656FFF0E7F2182
:101FB000666FFF0E8021676F641D686F651D696F16
:101FC000661D6A6F671D6B6FFF0E74256C6FFF0EC9
:101FD00075216D6FFF0E76216E6FFF0E77216F6F8B
:101FE00068516C15706F69516D15716F6A516E157E
:101FF000726F6B516F15736F20EE10F05E51D92622
:102000005F51DA2270C6DEF471C6DEF472C6DEF409
:1020100073C6DEF420EE10F05E51D9265F51DA224D
:10202000DE50605FDE50615BDE50625BDD50635B03
:1020300020EE14F05E51D9265F51DA22DEC483F619
:10204000DEC484F6DEC485F6DEC486F6A3EF90F027
:1020500020EE06F05E51D9265F51DA22DEC483F607
:10206000DEC484F6DEC485F6DEC486F683518411B0
:1020700085118611D8A43FEF90F041EF90F095EFD5
:1020800090F05EC641F65FC642F6000E436F000E4A
:10209000446F000E456F000E466F8AEC9DF041C6FE
:1020A00083F642C684F643C685F644C686F6060124
:1020B0008305841185118611D8A461EF90F063EF38
:1020C00090F06EEF90F020EE0FF05E51D9265F5148
:1020D000DA22020EDF6E020EDEEF92F083290AE1B1
:1020E000842908E1852906E18629D8A47AEF90F0B1
:1020F0007CEF90F087EF90F020EE0FF05E51D92644
:102100005F51DA22010EDF6E010EDEEF92F020EE5B
:1021100006F05E51D9265F51DA2283C6DEF484C60A
:10212000DEF485C6DEF486C6DEF420EE14F05E51E1
:10213000D9265F51DA2283C6DEF484C6DEF485C672
:10214000DEF486C6DEF48351841185118611D8B47D
:10215000ACEF90F0AEEF90F0E3EF91F068EF91F01C
:102160007D51605F7E51615B7F51625B8051635B3B
:1021700020EE10F05E51D9265F51DA227D51DE2625
:102180007E51DE227F51DE228051DE2220EE0EF0D3
:102190005E51D9265F51DA22DFA2D1EF90F0D3EF62
:1021A00090F0FFEF90F05EC641F65FC642F683C640
:1021B00043F684C644F685C645F686C646F68AECDE
:1021C0009DF041C683F642C684F643C685F644C6F2
:1021D00086F606018351841185118611D8A4F3EF88
:1021E00090F0F5EF90F015EF91F0000E606F000E9B
:1021F000616F000E626F000E636F77EF91F05EC645
:1022000020F65FC621F683C622F684C623F685C66D
:1022100024F686C625F662ECA9F020C683F621C610
:1022200084F622C685F623C686F6060183290AE1CE
:10223000842908E1852906E18629D8A422EF91F0B6
:1022400024EF91F02EEF91F020EE0FF05E51D926A1
:102250005F51DA22010EDF6E84EF90F08651851116
:10226000841109E1020E835DD8A039EF91F03BEFB4
:1022700091F050EF91F020EE14F08151D926825167
:10228000DA22DE50835DDE508459DE508559DE50FF
:102290008659D8A04EEF91F050EF91F05AEF91F09F
:1022A00020EE0FF05E51D9265F51DA22020EDF6E6A
:1022B0006BEF90F020EE14F05E51D9265F51DA22D8
:1022C00083C6DEF484C6DEF485C6DEF486C6DEF49C
:1022D00060517D5D61517E5962517F5963518059D2
:1022E000D8A075EF91F077EF91F0B0EF90F020EE7D
:1022F00010F05E51D9265F51DA226051DE2661511D
:10230000DE226251DE226351DE22FF0E6015646F11
:10231000010E6115656F000E6215666F000E631584
:10232000676F6451651166116711D8B49AEF91F027
:102330009CEF91F0E3EF91F081C610F582C611F5A4
:1023400083C612F584C613F585C614F586C615F541
:10235000EEECD4F010C578F611C579F612C57AF610
:1023600013C57BF60601785179117A117B11D8A437
:10237000BCEF91F0BEEF91F0C8EF91F020EE0FF0BE
:102380005E51D9265F51DA22020EDF6E6BEF90F0BC
:1023900060C664F661C665F662C666F663C667F631
:1023A0000A0ED8EF91F0D890673366336533643303
:1023B000E82ED3EF91F06451782765517923665167
:1023C0007A2367517B2320EE10F05E51D9265F51AE
:1023D000DA2210EE0AF05E51E1265F51E222DE5071
:1023E000E65CDE50E658DE50E658DE50E658D8B0DF
:1023F000FCEF91F0FEEF91F01AEF92F020EE10F06A
:102400005E51D9265F51DA2210EE0AF05E51E126C4
:102410005F51E222DEC4E6F4DEC4E6F4DEC4E6F494
:10242000DEC4E6F420EE0EF05E51D9265F51DA22CA
:10243000000EDB8C20EE10F05E51D9265F51DA22BF
:10244000FF0EDE14646F010EDE14656F000EDE14E5
:10245000666F000EDE14676F6451651166116711B7
:10246000D8B435EF92F037EF92F0FDEF8EF020EE1A
:1024700018F05E51D9265F51DA227851DE180FE14B
:102480007951DE180CE17A51DE1809E17B51DE1832
:10249000D8B44DEF92F04FEF92F0FDEF8EF020EEBA
:1024A0000EF05E51D9265F51DA22DFAE5AEF92F07C
:1024B0005CEF92F09FEF92F0220E5E250501F76F20
:1024C000000E06015F210501F86F060120EE18F0ED
:1024D0005E51D9265F51DA22DEC4F9F5DEC4FAF581
:1024E000DEC4FBF5DEC4FCF5000E0501FE6F010E37
:1024F000FD6F060120EE01F08151D9268251DA22CA
:10250000DF5037ECD8F00009D8B489EF92F08BEFA8
:1025100092F096EF92F0060120EE0FF05E51D92670
:102520005F51DA22010EDF6E84EF90F0060120EE9B
:102530000EF05E51D9265F51DA227F0EDF16220E91
:102540005E25006F000E5F21016F78C602F679C626
:1025500003F67AC604F67BC605F6000E076F010E79
:10256000066F20EE01F08151D9268251DA22DF5028
:102570008BECD7F00009D8B4C0EF92F0C2EF92F024
:10258000CDEF92F0060120EE0FF05E51D9265F519B
:10259000DA22010EDF6E84EF90F0060120EE18F0D3
:1025A0005E51D9265F51DA2278C6DEF479C6DEF4B0
:1025B0007AC6DEF47BC6DEF4FDEF8EF01200060173
:1025C000AF51B011D8A4E7EF92F0E9EF92F0ECEF41
:1025D00092F0090E9EEF96F03F0EB317B10E816F89
:1025E000060E826FD40E836F060E846FB3C685F617
:1025F00000EC80F00601D66FD651D8A402EF93F01C
:1026000004EF93F08EEF96F0D4C6D7F6D5C6D8F681
:10261000D70E806F060E816FB1C682F6B2C683F602
:102620009CECBDF00601D66FD651D8A41AEF93F0FA
:102630001CEF93F025EF93F0FEAF21EF93F023EF23
:1026400093F025EF93F0060ED66FB3C6B4F61C0ECA
:10265000B417D8B42EEF93F030EF93F04BEF94F023
:10266000D651D8B436EF93F038EF93F04CEF93F0A7
:10267000040ED619D8A43FEF93F041EF93F049EF41
:1026800093F0D70E846F060E856FD4ECD2F006015E
:10269000D66FB38764EF93F0DBC6B4F6110EB417B0
:1026A000D8B455EF93F057EF93F05BEF93F0070E2C
:1026B000D66F64EF93F0B3A560EF93F062EF93F001
:1026C00064EF93F0080ED66FD651D8A46AEF93F05A
:1026D0006CEF93F06EEF94F0B3A771EF93F073EF9C
:1026E00093F06EEF94F023ECE1F004C5C0F605C55D
:1026F000C1F606C5C2F607C5C3F60E0E0601F125E2
:10270000046E000EF221056EC0C606F5C1C607F5BF
:10271000C2C608F5C3C609F50EECDCF0160E0601BC
:10272000F125046E000EF221056EC0C606F5C1C685
:1027300007F5C2C608F5C3C609F50EECDCF0D4C631
:102740000BF5D5C60CF5F1C60DF5F2C60EF5D9ECB4
:10275000DAF00BC5C4F60CC5C5F60DC5C6F60EC538
:10276000C7F6060120EE0BF0F151D926F251DA221C
:10277000200EDF6ED4C608F5D5C609F5F1C60AF5F8
:10278000F2C60BF5000E0C6E000E0D6E000E0E6EF6
:10279000000E0F6E56ECDEF01C0E0601F125046EE5
:1027A000000EF221056E000E066E000E076E000E82
:1027B000086E000E096E0EECDCF0060120EE04F04F
:1027C000D451D926D551DA22010EDF6EC451C5117C
:1027D000C611C711D8B4EFEF93F0F1EF93F06EEF9D
:1027E00094F020EE2CF0D451D926D551DA22DEC453
:1027F000C8F6DEC4C9F6DEC4CAF6DEC4CBF6D70E10
:10280000416F060E426FC4C643F6C5C644F6C6C63F
:1028100045F6C7C646F6000E476F000E486F000E1D
:10282000496F000E4A6F63ECBAF00601D66FD651BD
:10283000D8A41DEF94F01FEF94F06EEF94F0D4C67F
:1028400015F6D5C616F6C8C617F6C9C618F6CAC60E
:1028500019F6CBC61AF688ECD4F00601D66FFF0E37
:10286000C425B46FFF0EC521B56FFF0EC621B66F2C
:10287000FF0EC721B76F20EE0CF0D451D926D551E9
:10288000DA22B4C6DEF4B5C6DEF4B6C6DEF4B7C6E8
:10289000DEF46EEF94F0D651D8A451EF94F053EFDC
:1028A00094F06EEF94F0DBA958EF94F05AEF94F0A7
:1028B0005EEF94F0040ED66F6EEF94F0B3A363EF67
:1028C00094F065EF94F06EEF94F0DBA16AEF94F072
:1028D0006CEF94F06EEF94F0070ED66FD651D8A43B
:1028E00074EF94F076EF94F09CEF94F0B3A77BEF45
:1028F00094F07DEF94F07EEF94F0B38D20EE2CF009
:10290000D451D926D551DA2210EE1CF0AF51E12670
:10291000B051E222DEC4E6F4DEC4E6F4DEC4E6F43E
:10292000DEC4E6F420EE20F0AF51D926B051DA2211
:10293000F1C6DEF4F2C6DDF4D651D8A4A2EF94F0CD
:10294000A4EF94F08EEF96F0D4C60BF5D5C60CF537
:10295000F1C60DF5F2C60EF5D9ECDAF0060120EE5F
:1029600006F0AF51D926B051DA220BC5DEF40CC502
:10297000DEF40DC5DEF40EC5DEF41C0EF125046E8A
:10298000000EF221056E7AECD6F0060120EE0AF078
:10299000AF51D926B051DA2204C5DEF405C5DEF404
:1029A00006C5DEF407C5DEF4AFC6D9F4B0C6DAF466
:1029B000D4C6DEF4D5C6DDF420EE06F0D451D92617
:1029C000D551DA2210EE02F0AF51E126B051E222E9
:1029D000DEC4E6F4DDC4E5F420EE0EF0AF51D926F6
:1029E000B051DA22B3C6DFF420EE0FF0AF51D92692
:1029F000B051DA22DF6A20EE18F0AF51D926B0517B
:102A0000DA22DE6ADE6ADE6ADD6A20EE10F0AF519D
:102A1000D926B051DA22DE6ADE6ADE6ADD6A220E6B
:102A2000AF25046E000EB021056E000E076E000E7D
:102A3000066E020E096E000E086EF3ECDFF0060162
:102A4000B3AB25EF95F027EF95F08EEF96F020EEE3
:102A50000AF0AF51D926B051DA22DE50DE10DE1076
:102A6000DE10D8B436EF95F038EF95F08EEF96F093
:102A700020EE0AF0AF51D926B051DA2210EE10F054
:102A8000AF51E126B051E222DEC4E6F4DEC4E6F442
:102A9000DEC4E6F4DEC4E6F420EE0AF0D451D92612
:102AA000D551DA22DEC4B4F6DDC4B5F6B451B66F42
:102AB000B551B76FB86BB96B090ED890B637B73749
:102AC000B837B937E82E5DEF95F0B6C6BCF6B7C695
:102AD000BDF6B8C6BEF6B9C6BFF620EE06F0AF51D9
:102AE000D926B051DA22DEC4D0F6DEC4D1F6DEC477
:102AF000D2F6DEC4D3F620EE0AF0AF51D926B0519B
:102B0000DA22DEC4CCF6DEC4CDF6DEC4CEF6DEC4F8
:102B1000CFF6C9EF95F0AFC620F6B0C621F6D0C605
:102B200022F6D1C623F6D2C624F6D3C625F662EC29
:102B3000A9F020C6D0F621C6D1F622C6D2F623C609
:102B4000D3F60601D351D211D11107E1020ED05DA7
:102B5000D8B0ADEF95F0AFEF95F0B1EF95F0020E74
:102B6000D66FD0290AE1D12908E1D22906E1D3297B
:102B7000D8A4BDEF95F0BFEF95F0C1EF95F0010E31
:102B8000D66FBC51CC5FBD51CD5BBE51CE5BBF514A
:102B9000CF5BD651D8A4CFEF95F0D1EF95F0E0EF11
:102BA00095F0CC51BC5DCD51BD59CE51BE59CF51E0
:102BB000BF59D8A0DEEF95F0E0EF95F08BEF95F0E0
:102BC00020EE14F0AF51D926B051DA22D0C6DEF48F
:102BD000D1C6DEF4D2C6DEF4D3C6DEF4D651D8A414
:102BE000F4EF95F0F6EF95F08EEF96F0FF0ECC1522
:102BF000B46F010ECD15B56F000ECE15B66F000E79
:102C0000CF15B76FB451B511B611B711D8B40BEFDA
:102C100096F00DEF96F08EEF96F0D4C610F5D5C66F
:102C200011F5D0C612F5D1C613F5D2C614F5D3C628
:102C300015F5EEECD4F010C5C8F611C5C9F612C5ED
:102C4000CAF613C5CBF60601C851C911CA11CB117A
:102C5000D8A42DEF96F02FEF96F033EF96F0020EFA
:102C6000D66F8EEF96F0CCC6B4F6CDC6B5F6CEC60E
:102C7000B6F6CFC6B7F60A0E43EF96F0D890B73344
:102C8000B633B533B433E82E3EEF96F0C851B425D1
:102C9000B86FC951B521B96FCA51B621BA6FCB51BE
:102CA000B721BB6F20EE18F0AF51D926B051DA2210
:102CB000B8C6DEF4B9C6DEF4BAC6DEF4BBC6DEF4CE
:102CC000220EAF25006F000EB021016F20EE18F02C
:102CD000AF51D926B051DA22DEC402F6DEC403F6C3
:102CE000DEC404F6DEC405F6000E076F010E066FA3
:102CF00020EE01F0D451D926D551DA22DF508BECE9
:102D0000D7F00009D8B487EF96F089EF96F08EEFF0
:102D100096F0010E0601D66F8EEF96F00601D651A1
:102D2000D8B495EF96F097EF96F09DEF96F0AFC67A
:102D3000D9F4B0C6DAF4DE6ADD6AD65112003CC6B8
:102D400057F63DC658F640C6D9F441C6DAF4DE6AF5
:102D5000DD6A3AC6BCF53BC6BDF5630E0501BE6F24
:102D6000060EBF6F62ECD0F00601526F5251D8A42C
:102D7000BCEF96F0BEEF96F0CEEF96F020EE0FF09F
:102D80003A51D9263B51DA22DF50526F5251D8B412
:102D9000CCEF96F0CEEF96F0D1EF96F052512EEFA9
:102DA0009AF020EE0EF03A51D9263B51DA22DFB0EC
:102DB000DCEF96F0DEEF96F0E1EF96F0070E2EEFE7
:102DC0009AF020EE10F03A51D9263B51DA22DEC4B7
:102DD00042F6DEC443F6DEC444F6DEC445F620EE19
:102DE0000AF03A51D9263B51DA22DEC446F6DEC457
:102DF00047F6DEC448F6DEC449F64251465D4E6FE2
:102E0000435147594F6F44514859506F45514959A3
:102E1000516F3E51426F3F51436F446B456B42517E
:102E20004E5D43514F594451505945515159D8B0B5
:102E30001CEF97F01EEF97F022EF97F04EC63EF68C
:102E40004FC63FF63E513F11D8A429EF97F02BEF24
:102E500097F02DEF97F02DEF9AF020EE10F03A5109
:102E6000D9263B51DA22FF0EDE14426F010EDE142A
:102E7000436F000EDE14446F000EDE14456F4251A6
:102E8000431144114511D8A448EF97F04AEF97F049
:102E9000C0EF99F020EE10F03A51D9263B51DA22DA
:102EA000DEC442F6DEC443F6DEC444F6DEC445F6B4
:102EB0000A0E60EF97F0D8904533443343334233E2
:102EC000E82E5BEF97F020EE0AF06351D9266451AB
:102ED000DA22DEC446F6DDC447F6FF0E4625486F0B
:102EE000FF0E4721496F42514815596F435149150B
:102EF0005A6F59515A11D8A480EF97F082EF97F08A
:102F0000FFEF97F020EE10F03A51D9263B51DA222C
:102F1000DE50DE10DE10DE10D8A491EF97F093EFB4
:102F200097F0A3EF97F020EE06F03A51D9263B51E7
:102F3000DA22DEC453F6DEC454F6DEC455F6DEC42F
:102F400056F6BFEF97F03AC620F63BC621F620EEC4
:102F500014F03A51D9263B51DA22DEC422F6DEC4FF
:102F600023F6DEC424F6DEC425F662ECA9F020C602
:102F700053F621C654F622C655F623C656F6060168
:102F800056515511541107E1020E535DD8B0CBEFE5
:102F900097F0CDEF97F0D8EF97F020EE0FF03A5181
:102FA000D9263B51DA22020EDF6E020E2EEF9AF086
:102FB00053290AE1542908E1552906E15629D8A4E4
:102FC000E4EF97F0E6EF97F0F1EF97F020EE0FF0D7
:102FD0003A51D9263B51DA22010EDF6E010E2EEF57
:102FE0009AF020EE14F03A51D9263B51DA2253C61A
:102FF000DEF454C6DEF455C6DEF456C6DEF463C60F
:1030000010F564C611F520EE14F03A51D9263B5163
:10301000DA22DEC412F5DEC413F5DEC414F5DEC414
:1030200015F5EEECD4F010C55FF611C560F612C5CB
:1030300061F613C562F606015F51601161116211FC
:10304000D8A425EF98F027EF98F031EF98F020EE14
:103050000FF03A51D9263B51DA22020EDF6ED5EF3E
:1030600097F059515F275A516023000E6123000EDB
:1030700062233EC642F63FC643F6090E446FD8901F
:1030800043334233442F3FEF98F042C65BF643C6CA
:103090005CF65B515C11D8B450EF98F052EF98F0A9
:1030A0001BEF99F05B515925426F5C515A21436FD8
:1030B00020EE0AF06351D9266451DA224251DE5CD7
:1030C0004351DE58D8B067EF98F069EF98F079EF88
:1030D00098F020EE0AF06351D9266451DA22DEC45A
:1030E00042F6DDC443F65951425D5B6F5A51435974
:1030F0005C6F57C600F658C601F65FC602F660C69A
:1031000003F661C604F662C605F65BC606F65CC643
:1031100007F620EE01F06351D9266451DA22DF5020
:103120008BECD7F00009D8B498EF98F09AEF98F0AC
:10313000A5EF98F0060120EE0FF03A51D9263B5149
:10314000DA22010EDF6EEEEF97F0060120EE0EF0B0
:103150003A51D9263B51DA22DFAEB1EF98F0B3EF06
:1031600098F009EF99F05B51426F5C51436F446BEB
:10317000456B20EE18F03A51D9263B51DA22DEC4D5
:1031800046F6DEC447F6DEC448F6DEC449F65F51B3
:10319000465D4A6F605147594B6F615148594C6FBA
:1031A000625149594D6F42514A5D43514B59445107
:1031B0004C5945514D59D8B0E0EF98F0E2EF98F0F6
:1031C00009EF99F020EE18F03A51D9263B51DA2256
:1031D000DEC442F6DDC443F65F51425F6051435B9B
:1031E000090ED89042374337E82EF1EF98F042515C
:1031F0005725046E43515821056E220E3A25066E5E
:10320000000E3B21076E020E096E000E086E2EECBA
:10321000DEF05BC642F65CC643F6090ED8900601A6
:1032200042374337E82E0EEF99F042C65DF643C6AB
:103230005EF60DEF9AF020EE18F03A51D9263B5188
:10324000DA225F51DE180FE16051DE180CE16151A6
:10325000DE1809E16251DE18D8B431EF99F033EF8E
:1032600099F0B1EF99F020EE0EF03A51D9263B518A
:10327000DA22DFAE3EEF99F040EF99F083EF99F05C
:10328000220E3A250501F76F000E06013B210501CC
:10329000F86F060120EE18F03A51D9263B51DA2298
:1032A000DEC4F9F5DEC4FAF5DEC4FBF5DEC4FCF5D8
:1032B000000E0501FE6F010EFD6F060120EE01F00C
:1032C0006351D9266451DA22DF5037ECD8F0000977
:1032D000D8B46DEF99F06FEF99F07AEF99F006019D
:1032E00020EE0FF03A51D9263B51DA22010EDF6E63
:1032F000EEEF97F0060120EE0EF03A51D9263B5141
:10330000DA227F0EDF16220E3A25006F000E3B21D7
:10331000016F5FC602F660C603F661C604F662C6B8
:1033200005F6000E076F010E066F20EE01F06351E7
:10333000D9266451DA22DF508BECD7F00009D8B4DB
:10334000A4EF99F0A6EF99F0B1EF99F0060120EE05
:103350000FF03A51D9263B51DA22010EDF6EEEEF23
:1033600097F0060120EE18F03A51D9263B51DA22A7
:103370005FC6DEF460C6DEF461C6DEF462C6DEF46B
:1033800020EE10F03A51D9263B51DA22DEC442F643
:10339000DDC443F6FF0E4215446F010E4315456F21
:1033A000445100085D6F4551D8A0E82A02085E6FBD
:1033B0005D513E5D5E513F59D8B0E1EF99F0E3EFCA
:1033C00099F0E7EF99F03EC65DF63FC65EF657C648
:1033D00004F558C605F520EE10F03A51D9263B51B8
:1033E000DA22DEC442F6DDC443F6FF0E4215446F16
:1033F000010E4315456F44513A25466F45513B2117
:10340000476F220E4625066E000E4721076E5DC6E9
:1034100008F55EC609F52EECDEF006015D513E5F53
:103420005E513F5B40C6D9F441C6DAF45D51DE26F9
:103430005E51DD225D5157275E51582320EE10F07A
:103440003A51D9263B51DA225D51DE265E51DE2209
:10345000000EDE22DE2222EF97F0000E120095C54C
:10346000D9F496C5DAF4DEC4F6F4DDC4F7F4000E40
:10347000F86E0800F550250AD8A441EF9AF043EF02
:103480009AF073EF9DF095C5D9F496C5DAF4DE2A6B
:10349000000EDD22000E0701306F000E2F6F2FC7C8
:1034A0005CF55A685B68000E05019D6F78EF9AF035
:1034B0005C8295C5D9F496C5DAF4DE2A000EDD22C9
:1034C00078EF9AF0010E9D6F78EF9AF095C5D9F4D8
:1034D00096C5DAF4DEC4F6F4DDC4F7F4000EF86E37
:1034E0000800F550300AD8B458EF9AF062EF9AF01D
:1034F0009D51D8B47EEF9AF080EF9AF066EF9AF083
:1035000095C50AF596C50BF597C50CF598C50DF54B
:1035100021ECD4F00AC52FF70BC530F7070130BFF7
:1035200096EF9AF094EF9AF09BEF9AF05C802F6DF3
:10353000301FD8B0302B95C5D9F496C5DAF4DEC467
:10354000F6F4DDC4F7F4000EF86E0800F5502E0A0C
:10355000D8A4ADEF9AF0AFEF9AF0C4EF9AF095C50A
:10356000D9F496C5DAF4DE2A000EDD2295C50AF5F7
:1035700096C50BF597C50CF598C50DF521ECD4F063
:103580000AC55AF50BC55BF595C5D9F496C5DAF4AD
:10359000DEC4A3F5DDC4A4F5A3C5F6F4A4C5F7F411
:1035A000000EF86E0800F5C4A2F5E3EF9AF0A34B05
:1035B000A42BFBEF9AF0690EA26FFBEF9AF0000EBE
:1035C000A26FFBEF9AF00501A251580AD8B4DBEFC5
:1035D0009AF03C0AD8B4DBEF9AF00D0AD8B4DBEFCE
:1035E0009AF0050AD8B4D7EF9AF0140AD8B4DBEFF2
:1035F0009AF0DFEF9AF0A3C5F6F4A4C5F7F4000E35
:10360000F86E0800F550640AD8B409EF9BF00BEF90
:103610009BF052EF9BF0A3C5F6F4A4C5F7F4000E9F
:10362000F86E0800F550690AD8A419EF9BF01BEF5B
:103630009BF07BEF9BF052EF9BF097C5D9F498C5B8
:10364000DAF4DFC499F5020EDE26DFC49AF5000E27
:10365000DD2299C5D9F49AC5DAF4DEC49EF5DDC43D
:103660009FF5000E9FBFFF0EA06FA16F5DEF9BF057
:1036700097C5D9F498C5DAF4DFC499F5040EDE26AF
:10368000DFC49AF5000EDD2299C5D9F49AC5DAF4A3
:10369000DEC49EF5DEC49FF5DEC4A0F5DEC4A1F550
:1036A0005DEF9BF0A251690AD8B41DEF9BF0050AAB
:1036B000D8B438EF9BF05DEF9BF0010EA325996F16
:1036C000000EA4219A6F95C5D9F496C5DAF499C570
:1036D000DEF49AC5DDF493C51EF594C51FF59EC5AD
:1036E00020F59FC521F5A0C522F5A1C523F5A0ECC5
:1036F000C1F089EF9DF0A3C5F6F4A4C5F7F4000E60
:10370000F86E0800F550780AD8B489EF9BF08BEF7B
:103710009BF0D3EF9BF0A3C5F6F4A4C5F7F4000E1D
:10372000F86E0800F550580AD8A499EF9BF09BEF6B
:103730009BF019EF9CF0D3EF9BF097C5D9F498C597
:10374000DAF4DFC499F5020EDE26DFC49AF5000E26
:10375000DD2299C5D9F49AC5DAF4DEC49BF5DDC43F
:103760009CF59BC59EF59CC59FF5A06BA16BDEEFFC
:103770009BF097C5D9F498C5DAF4DFC499F5040E27
:10378000DE26DFC49AF5000EDD2299C5D9F49AC56C
:10379000DAF4DEC49EF5DEC49FF5DEC4A0F5DEC417
:1037A000A1F5DEEF9BF0A251690AD8B49DEF9BF022
:1037B000050AD8B4B9EF9BF0DEEF9BF0010EA3250C
:1037C000996F000EA4219A6F95C5D9F496C5DAF4C5
:1037D00099C5DEF49AC5DDF407EF9CF093C51EF59C
:1037E00094C51FF59EC520F59FC521F5A0C522F5FE
:1037F000A1C523F5A3C5F6F4A4C5F7F4000EF86E31
:103800000800F5C424F587ECC7F089EF9DF0A3C547
:10381000F6F4A4C5F7F4000EF86E0800F550580A47
:10382000D8B4EEEF9BF0200AD8B4EEEF9BF019EF7E
:103830009CF0000E9D6F95C5D9F496C5DAF4DEC4F0
:10384000F6F4DDC4F7F4000EF86E0800F550730AC4
:10385000D8A42DEF9CF02FEF9CF03AEF9CF095C58B
:10386000D9F496C5DAF4DE2A000EDD22010E9D6F32
:1038700090EF9CF095C5D9F496C5DAF4DEC4F6F461
:10388000DDC4F7F4000EF86E0800F5506C0AD8A4F9
:103890004CEF9CF04EEF9CF090EF9CF095C5D9F466
:1038A00096C5DAF4DEC499F5DDC49AF5010E9927C0
:1038B000000E9A2399C5F6F49AC5F7F4000EF86E37
:1038C0000800F5506C0AD8A468EF9CF06AEF9CF0F1
:1038D00090EF9CF095C5D9F496C5DAF4DEC499F55D
:1038E000DDC49AF5020E9927000E9A2399C5F6F4C5
:1038F0009AC5F7F4000EF86E0800F550730AD8A4C4
:1039000084EF9CF086EF9CF090EF9CF0030E95C541
:10391000D9F496C5DAF4DE26000EDD2236EF9CF0EF
:103920009D51D8B496EF9CF098EF9CF0B4EF9CF0CA
:1039300093C50EF594C50FF597C5D9F498C5DAF47B
:10394000DFC499F5020EDE26DFC49AF5000EDD22F3
:1039500099C5D9F49AC5DAF4DEC410F5DDC411F5C1
:10396000EFECC5F089EF9DF095C5D9F496C5DAF472
:10397000DEC4A3F5DDC4A4F5A3C5F6F4A4C5F7F42D
:10398000000EF86E0800F5C4A2F5D3EF9CF0A34B2F
:10399000A42BE2EF9CF06C0EA26FE2EF9CF0000E05
:1039A000A26FE2EF9CF0A2514C0AD8B4C7EF9CF092
:1039B0002A0AD8B4CBEF9CF00A0AD8B4C7EF9CF01F
:1039C000CFEF9CF0A3C5F6F4A4C5F7F4000EF86E93
:1039D0000800F550660AD8A4F0EF9CF0F2EF9CF0D6
:1039E0006AEF9DF028EF9DF097C5D9F498C5DAF4F9
:1039F000DFC499F5040EDE26DFC49AF5000EDD2241
:103A000099C5D9F49AC5DAF4DEC49EF5DEC49FF5F3
:103A1000DEC4A0F5DEC4A1F533EF9DF097C5D9F45F
:103A200098C5DAF4DFC499F5040EDE26DFC49AF5F2
:103A3000000EDD2299C5D9F49AC5DAF4DEC49EF5EC
:103A4000DEC49FF5DEC4A0F5DEC4A1F533EF9DF022
:103A5000A2514C0AD8B40EEF9DF0200AD8B4F4EF6E
:103A60009CF033EF9DF0010EA325996F000EA42169
:103A70009A6F95C5D9F496C5DAF499C5DEF49AC55E
:103A8000DDF45CEF9DF093C560F594C561F59EC5CE
:103A900062F59FC563F5A0C564F5A1C565F5A3C52D
:103AA000F6F4A4C5F7F4000EF86E0800F5C466F548
:103AB00062EC85F089EF9DF0A3C5F6F4A4C5F7F498
:103AC000000EF86E0800F550660AD8B443EF9DF07A
:103AD0006AEF9DF095C5D9F496C5DAF4DE2A000E9A
:103AE000DD2289EF9DF095C5D9F496C5DAF4DEC4E0
:103AF000F6F4DDC4F7F4000EF86E0800F550056E1C
:103B0000066A93C507F594C508F554ECD5F06AEF3D
:103B10009DF0120041C6D9F442C6DAF4DEC458F66C
:103B2000DDC459F606014351441145114611D8A48C
:103B30009CEF9DF09EEF9DF0D6EF9DF020EE0CF0F7
:103B40005851D9265951DA22DEC450F6DEC451F656
:103B5000DEC452F6DEC453F65051511152115311C6
:103B6000D8B4B5EF9DF0B7EF9DF0CCEF9DF020EE0F
:103B700014F05851D9265951DA22DE50505DDE50EA
:103B80005159DE505259DE505359D8A0CAEF9DF01A
:103B9000CCEF9DF03BEF9EF0010E506F000E516F89
:103BA000000E526F000E536F3BEF9EF041C620F6A1
:103BB00042C621F643C622F644C623F645C624F67D
:103BC00046C625F662ECA9F020C65AF621C65BF679
:103BD00022C65CF623C65DF606015D515C115B11E1
:103BE00007E1020E5A5DD8B0F8EF9DF0FAEF9DF0B4
:103BF00004EF9EF0010E416F000E426F000E436F06
:103C0000000E446F61EFA0F05A290AE15B2908E138
:103C10005C2906E15D29D8A410EF9EF012EF9EF01A
:103C20001CEF9EF05AC641F65BC642F65CC643F6F0
:103C30005DC644F661EFA0F020EE14F05851D9268D
:103C40005951DA22DE505A5DDE505B59DE505C5924
:103C5000DE505D59D8B02FEF9EF031EF9EF033EF7C
:103C60009EF012EF9EF043C650F644C651F645C68C
:103C700052F646C653F620EE10F05851D926595147
:103C8000DA22DE50DE10DE10DE10D8A44AEF9EF0FD
:103C90004CEF9EF056EF9EF0000E416F000E426F0B
:103CA000000E436F000E446F61EFA0F0000E546FE2
:103CB000000E556F000E566F000E576F435150198E
:103CC0000DE1445151190AE14551521907E146519C
:103CD0005319D8A46EEF9EF070EF9EF016EF9FF090
:103CE000010E5025546F000E5121556F000E5221C8
:103CF000566F000E5321576F20EE14F05851D926FD
:103D00005951DA22DE50545DDE505559DE50565975
:103D1000DE505759D8A08FEF9EF091EF9EF099EFAB
:103D20009EF0020E546F000E556F000E566F000E7F
:103D3000576F41C620F642C621F654C622F655C634
:103D400023F656C624F657C625F662ECA9F020C61F
:103D50005AF621C65BF622C65CF623C65DF606015E
:103D60005A055B115C115D11D8B4B9EF9EF0BBEF41
:103D70009EF012EF9EF05A290AE15B2908E15C29C6
:103D800006E15D29D8A4C7EF9EF0C9EF9EF0CBEF06
:103D90009EF012EF9EF05A515B115C115D11D8B488
:103DA000D4EF9EF0D6EF9EF016EF9FF020EE0CF0D1
:103DB0005851D9265951DA22DEC45AF6DEC45BF6D0
:103DC000DEC45CF6DEC45DF65D515C115B1109E199
:103DD000020E5A5DD8A0EFEF9EF0F1EF9EF00EEFCD
:103DE0009FF020EE14F05851D9265951DA22DE50B6
:103DF0005A5DDE505B59DE505C59DE505D59D8B0DB
:103E000004EF9FF006EF9FF00EEF9FF05AC650F6BA
:103E10005BC651F65CC652F65DC653F6000E546F93
:103E2000000E556F000E566F000E576F545155110E
:103E300056115711D8A41FEF9FF021EF9FF0AEEF5E
:103E40009FF050C654F651C655F652C656F653C6A4
:103E500057F6010E5427000E55235623572320EE04
:103E600014F05851D9265951DA22DE50545DDE50F3
:103E70005559DE505659DE505759D8A042EF9FF0A1
:103E800044EF9FF05BEF9FF0020E546F000E556FF2
:103E9000000E566F000E576F53515211511107E12A
:103EA000020E505DD8B057EF9FF059EF9FF05BEFD7
:103EB0009FF04CEF9EF041C620F642C621F654C654
:103EC00022F655C623F656C624F657C625F662ECEA
:103ED000A9F020C65AF621C65BF622C65CF623C6B8
:103EE0005DF606015A515B115C115D11D8A47BEFA0
:103EF0009FF07DEF9FF07FEF9FF0AEEF9FF05A05B0
:103F00005B115C115D11D8B488EF9FF08AEF9FF0D0
:103F100012EF9EF05A290AE15B2908E15C2906E1CB
:103F20005D29D8A496EF9FF098EF9FF09AEF9FF04D
:103F300012EF9EF0505154190DE1515155190AE1FB
:103F40005251561907E153515719D8A4AAEF9FF0BF
:103F5000ACEF9FF029EF9FF04CEF9EF058C620F693
:103F600059C621F654C622F655C623F656C624F67F
:103F700057C625F6FF0E266FFF0E276FFF0E286F20
:103F8000FF0E296F62ECA0F006014F6F4F51D8A4CD
:103F9000CCEF9FF0CEEF9FF0F1EF9FF04351441133
:103FA00045114611D8B4D7EF9FF0D9EF9FF0F1EF4C
:103FB0009FF058C620F659C621F643C622F644C6DD
:103FC00023F645C624F646C625F654C626F655C63B
:103FD00027F656C628F657C629F662ECA0F0060169
:103FE0004F6F4F51D8A4F7EF9FF0F9EF9FF043EFD9
:103FF000A0F020EE0CF05851D9265951DA2254C6BF
:10400000DEF455C6DEF456C6DEF457C6DEF420EE06
:1040100010F05851D9265951DA2210EE14F05851A7
:10402000E1265951E222FE0EE6244B6FFF0EE620F8
:104030004C6FFF0EE6204D6FFF0EE6204E6FDE50F8
:104040004B5DDE504C59DE504D59DE504E59D8A0D4
:104050002CEFA0F02EEFA0F039EFA0F020EE10F042
:104060005851D9265951DA22DE06000EDE5ADE5AA0
:10407000DE5A20EE05F05851D9265951DA22000EA9
:10408000DB8059EFA0F04F05D8B449EFA0F04BEF1B
:10409000A0F055EFA0F0010E546F000E556F000E0A
:1040A000566F000E576F59EFA0F054695569566965
:1040B000576954C641F655C642F656C643F657C62A
:1040C00044F61200020E0601406F255124112311FF
:1040D00009E1020E225DD8A070EFA0F072EFA0F00F
:1040E000D6EFA2F020EE14F02051D9262151DA2289
:1040F000DE50225DDE502359DE502459DE50255912
:10410000D8B085EFA0F087EFA0F0D6EFA2F0C3EF14
:10411000A2F022C63EF623C63FF6D8903F312B6F61
:104120003E312A6F2A513E272B513F2320C615F6D8
:1041300021C616F620EE20F02051D9262151DA2290
:10414000DEC42AF6DEC42BF6DEC42CF6DEC42DF661
:104150003EC62EF63FC62FF6090E306FD8902F338D
:104160002E33302FAEEFA0F02E512A25176F2F518E
:104170002B21186F000E2C21196F000E2D211A6FA4
:1041800088ECD4F00601406F4051D8B4CAEFA0F0DB
:10419000CCEFA0F0CEEFA0F0D6EFA2F0FF0E3E15D0
:1041A0002A6F010E3F152B6F2A5120252C6F2B51A2
:1041B00021212D6F300E2C253C6F000E2D213D6FDF
:1041C0003E4B3F2B22B1E7EFA0F0E9EFA0F0EEEF7E
:1041D000A0F026C638F6396B08EFA1F026512A6FF9
:1041E0002B6B2A3B2B3BF00E2B172A510F0B2B135B
:1041F000F00E2A173CC6D9F43DC6DAF4DF500F0B97
:104200002C6F2D6B2A512C11386F2B512D11396FBA
:104210003CC6D9F43DC6DAF438C6DFF420EE04F02B
:104220002051D9262151DA22010EDF6E20C615F663
:1042300021C616F620EE20F02051D9262151DA228F
:10424000DEC42AF6DEC42BF6DEC42CF6DEC42DF660
:104250003EC62EF63FC62FF6090E306FD8902F338C
:104260002E33302F2EEFA1F02E512A25176F2F510C
:104270002B21186F000E2C21196F000E2D211A6FA3
:1042800088ECD4F00601406F4051D8B44AEFA1F059
:104290004CEFA1F04EEFA1F0D6EFA2F0FF0E3E15CD
:1042A0002A6F010E3F152B6F2A5120252C6F2B51A1
:1042B00021212D6F300E2C253C6F000E2D213D6FDE
:1042C00022B165EFA1F067EFA1F085EFA1F026C65E
:1042D0002AF627C62BF628C62CF629C62DF62BC69D
:1042E0002AF62CC62BF62DC62CF62D6B0F0E2A1790
:1042F0003CC6D9F43DC6DAF4DF50F00B2A112E6F1C
:104300002E513A6F3B6B9BEFA1F026C62AF627C6CB
:104310002BF628C62CF629C62DF6050E95EFA1F032
:10432000D8902D332C332B332A33E82E90EFA1F085
:104330002A513A6F3B6B3CC6D9F43DC6DAF43AC613
:10434000DFF420EE04F02051D9262151DA22010EAB
:10435000DF6ED6EFA2F020C615F621C616F620EEC7
:1043600020F02051D9262151DA22DEC42AF6DEC4FB
:104370002BF6DEC42CF6DEC42DF622C62EF623C69E
:104380002FF624C630F625C631F62FC62EF630C6D7
:104390002FF631C630F6316B2A512E25176F2B516F
:1043A0002F21186F2C513021196F2D5131211A6F87
:1043B00088ECD4F00601406F4051D8B4E2EFA1F090
:1043C000E4EFA1F0E6EFA1F0D6EFA2F022C62AF6C4
:1043D00023C62BF6D8902A372B37FF0E2A152C6FC1
:1043E000010E2B152D6F2C5120252E6F2D512121C3
:1043F0002F6F300E2E25046E000E2F21056E26C65F
:1044000006F527C607F58FECE0F0060120EE04F074
:104410002051D9262151DA22010EDF6ED6EFA2F00B
:1044200020C615F621C616F620EE20F02051D9261A
:104430002151DA22DEC42AF6DEC42BF6DEC42CF6C5
:10444000DEC42DF622C62EF623C62FF624C630F67D
:1044500025C631F6080E32EFA2F0D8903133303352
:104460002F332E33E82E2DEFA2F02A512E25176F71
:104470002B512F21186F2C513021196F2D513121C3
:104480001A6F88ECD4F00601406F4051D8B44BEF5E
:10449000A2F04DEFA2F04FEFA2F0D6EFA2F022C6AD
:1044A0002AF623C62BF6D8902A372B37D8902A37EE
:1044B0002B37FF0E2A152C6F010E2B152D6F2C514B
:1044C00020252E6F2D5121212F6F300E2E25046EA9
:1044D000000E2F21056E7AECD6F0000E04140601B2
:1044E000306F000E0514316F000E0614326FF00E9F
:1044F0000714336FFF0E2615346FFF0E2715356F27
:10450000FF0E2815366F0F0E2915376F30513411F5
:10451000266F31513511276F32513611286F3351C3
:104520003711296F22C62AF623C62BF6D8902A37D0
:104530002B37D8902A372B37FF0E2A152C6F010EF8
:104540002B152D6F2C5120252E6F2D5121212F6FD2
:10455000300E2E25046E000E2F21056E26C606F5A0
:1045600027C607F528C608F529C609F50EECDCF0C4
:10457000060120EE04F02051D9262151DA22010E45
:10458000DF6ED6EFA2F020C6D9F421C6DAF4DF50F0
:10459000010AD8B489EFA0F0030AD8B4ABEFA1F0B8
:1045A000010AD8B410EFA2F0D6EFA2F040511200E9
:1045B0000750800B106E07500724126E06AEE3EF13
:1045C000A2F0E5EFA2F0E6EFA2F012801250D8B40C
:1045D000ECEFA2F0EEEFA2F003EFA3F01228D8A4C4
:1045E000F4EFA2F0F6EFA2F0FEEFA2F0000E046EE0
:1045F000000E056E000E066E000E076E068E000E93
:10460000076E0BEFA3F0000E046E000E056E000E99
:10461000066E000E076E0B50800B116E10501118B5
:10462000D8B415EFA3F017EFA3F018EFA3F0108C98
:104630000B500B24116E0AAE20EFA3F022EFA3F073
:1046400023EFA3F011801150D8B429EFA3F02BEF82
:10465000A3F040EFA3F01128D8A431EFA3F033EF7B
:10466000A3F03BEFA3F0000E086E000E096E000EE3
:104670000A6E000E0B6E0A8E000E0B6E48EFA3F052
:10468000000E086E000E096E000E0A6E000E0B6E14
:104690001250115CD8B04FEFA3F051EFA3F078EFB8
:1046A000A3F010AC56EFA3F058EFA3F05AEFA3F02D
:1046B000800E101A12C513F511C512F513C511F5A8
:1046C00004C513F508C504F513C508F505C513F5AC
:1046D00009C505F513C509F506C513F50AC506F59F
:1046E00013C50AF507C513F50BC507F513C50BF57B
:1046F000000E136E125011C50CF50D6A0C5E000E03
:104700000D5A0DBE8DEFA3F00D5009E11A0E0C5C91
:10471000D8A08DEFA3F08FEFA3F0C6EFA3F0045065
:10472000051006100710D8A498EFA3F09BEFA3F094
:10473000010E9CEFA3F0000E136E000E046E000E2F
:10474000056E000E066E000E076E11C512F5CFEF56
:10475000A3F013A0AEEFA3F0B0EFA3F0B6EFA3F079
:10476000D89013300109136EB8EFA3F0D89013322C
:1047700004A0BDEFA3F0BFEFA3F0C0EFA3F0138E32
:1047800007340732063205320432122A1150125C05
:10479000D8A0CDEFA3F0CFEFA3F0A9EFA3F010BC0A
:1047A000D4EFA3F0D6EFA3F016EFA4F01250D8A4E4
:1047B000DCEFA3F0DEEFA3F0E8EFA3F0000E046E51
:1047C000000E056E000E066E000E076E37EFA5F0A8
:1047D00008500426095005220A5006220B500722D1
:1047E00007A0F5EFA3F0F7EFA3F0A3EFA4F013A059
:1047F000FCEFA3F0FEEFA3F004EFA4F0D890133089
:104800000109136E06EFA4F0D890133204A00BEF49
:10481000A4F00DEFA4F00EEFA4F0138E07340732CE
:10482000063205320432122AA3EFA4F00850045CC9
:10483000095005580A5006580750800A0C6E0B5054
:10484000800A0C58D8B027EFA4F029EFA4F054EF59
:10485000A4F00450085C0C6E055009580D6E06500B
:104860000A580E6E07500B580F6EFF0E0C24046E84
:10487000FF0E0D20056EFF0E0E20066EFF0E0F20A0
:10488000076E800E101A136C1350D8A44AEFA4F0D0
:104890004CEFA4F05CEFA4F0010E0426000E0522FC
:1048A000062207225CEFA4F00850045E0950055A66
:1048B0000A50065A0B50075A0450051006100710EC
:1048C000D8A465EFA4F067EFA4F09CEFA4F0135018
:1048D000D8A46DEFA4F06FEFA4F09CEFA4F0000E4D
:1048E000046E000E056E000E066E000E076E37EFAA
:1048F000A5F0D890043605360636073613AE83EF9A
:10490000A4F085EFA4F086EFA4F0048013A08BEF51
:10491000A4F08DEFA4F091EFA4F0D880133693EFBC
:10492000A4F0D89013361250D8B499EFA4F09BEFAE
:10493000A4F09CEFA4F0120606AEA1EFA4F0A3EF42
:10494000A4F079EFA4F0000E116E13AEAAEFA4F05C
:10495000ACEFA4F0C4EFA4F013C50CF57F0E0C1659
:10496000D8B4B5EFA4F0B7EFA4F0BBEFA4F0010EFC
:10497000116EC4EFA4F004A0C0EFA4F0C2EFA4F045
:10498000C4EFA4F0B7EFA4F01150D8B4CAEFA4F06C
:10499000CCEFA4F0F7EFA4F0010E0426000E0522E0
:1049A0000622072207A0D7EFA4F0D9EFA4F0F7EF73
:1049B000A4F004C50CF505C50DF506C50EF507C533
:1049C0000FF50F340F320E320D320C320CC504F5D8
:1049D0000DC505F50EC506F50FC507F51228D8B4A7
:1049E000F4EFA4F0F6EFA4F0F7EFA4F0122A1228E7
:1049F000D8B4FDEFA4F0FFEFA4F007EFA5F012503C
:104A0000D8A405EFA5F007EFA5F019EFA5F0000E6B
:104A1000046E000E056E000E066E000E076E12503C
:104A2000D8A415EFA5F017EFA5F019EFA5F0000E2B
:104A3000106E12A01EEFA5F020EFA5F023EFA5F059
:104A4000068E24EFA5F0069ED8901230076E10AEA9
:104A50002CEFA5F02EEFA5F02FEFA5F0078E04C5E3
:104A600004F505C505F506C506F507C507F51200E9
:104A70005EC6D9F45FC6DAF4DEC472F6DDC473F63E
:104A8000060120EE0EF05E51D9265F51DA22DEC417
:104A900062F6DEC463F6DEC464F6DEC465F6200E9C
:104AA00062256E6F000E63216F6F000E6421706FC0
:104AB000000E6521716F715109E1200E705DD8A063
:104AC00064EFA5F066EFA5F070EFA5F020EE16F00C
:104AD0005E51D9265F51DA22DE6ADE6ADE6ADD6A5D
:104AE00020EE16F05E51D9265F51DA22DE50DE103C
:104AF000DE10DE10D8A47FEFA5F081EFA5F084EFE3
:104B0000A5F0040E4CEFA7F0FF0E6E15626F010EBC
:104B10006F15636F000E7015646F000E7115656F71
:104B20006251631164116511D8A499EFA5F09BEF50
:104B3000A5F023EFA7F020EE16F05E51D9265F51C5
:104B4000DA22DE2A000EDE22DE22DE2220EE12F043
:104B50005E51D9265F51DA22DE50DE10DE10DE1003
:104B6000D8A4B5EFA5F0B7EFA5F0F5EFA5F020EECE
:104B700008F07251D9267351DA22DEC462F6DDC420
:104B800063F66251646F6351656F666B676B6EC6E7
:104B900068F66FC669F670C66AF671C66BF6060EE1
:104BA000D7EFA5F0D8906B336A3369336833E82EBA
:104BB000D2EFA5F06451685D6551695966516A5933
:104BC00067516B59D8A0E7EFA5F0E9EFA5F023EF07
:104BD000A7F020EE16F05E51D9265F51DA22DE6A88
:104BE000DE6ADE6ADD6A81EFA5F020EE0AF072511E
:104BF000D9267351DA22DEC462F6DDC463F6FF0EF5
:104C00006225646FFF0E6321656F6EC666F66FC620
:104C100067F670C668F671C669F60A0E15EFA6F05B
:104C2000D8906933683367336633E82E10EFA6F007
:104C3000645166156A6F655167156B6F000E6815D4
:104C40006C6F000E69156D6F6A516B116C116D11EF
:104C5000D8A42DEFA6F02FEFA6F023EFA7F05EC6A5
:104C600020F65FC621F620EE12F05E51D9265F5184
:104C7000DA22DEC422F6DEC423F6DEC424F6DEC465
:104C800025F662ECA9F020C674F621C675F622C698
:104C900076F623C677F6060177517611751107E18E
:104CA000020E745DD8B057EFA6F059EFA6F05CEF96
:104CB000A6F0020E4CEFA7F074290AE1752908E16D
:104CC000762906E17729D8A468EFA6F06AEFA6F066
:104CD0006DEFA6F0010E4CEFA7F020EE14F072512C
:104CE000D9267351DA22DE50745DDE507559DE50DC
:104CF0007659DE507759D8A080EFA6F082EFA6F063
:104D0000F7EFA6F060516111D8A489EFA6F08BEF00
:104D1000A6F097EFA6F020EE16F05E51D9265F516F
:104D2000DA22DE6ADE6ADE6ADD6A81EFA5F05EC63F
:104D300041F65FC642F620EE12F05E51D9265F5171
:104D4000DA22DEC443F6DEC444F6DEC445F6DEC431
:104D500046F68AEC9DF041C674F642C675F643C627
:104D600076F644C677F606017451751176117711FF
:104D7000D8A4BDEFA6F0BFEFA6F0C2EFA6F0070ED5
:104D80004CEFA7F07405751176117711D8A4CBEF0D
:104D9000A6F0CDEFA6F0CFEFA6F059EFA6F074295C
:104DA0000AE1752908E1762906E17729D8A4DBEF25
:104DB000A6F0DDEFA6F0DFEFA6F06AEFA6F072C670
:104DC00015F673C616F674C617F675C618F676C6C7
:104DD00019F677C61AF631ECCBF00009D8B4F3EF28
:104DE000A6F0F5EFA6F0F7EFA6F06AEFA6F0060141
:104DF00020EE12F05E51D9265F51DA2274C6DEF43D
:104E000075C6DEF476C6DEF477C6DEF472C610F53B
:104E100073C611F574C612F575C613F576C614F58A
:104E200077C615F5EEECD4F0060120EE16F05E51D3
:104E3000D9265F51DA2210C5DEF411C5DEF412C5A1
:104E4000DEF413C5DEF420EE0EF05E51D9265F517C
:104E5000DA226EC6DEF46FC6DEF470C6DEF471C60A
:104E6000DEF4FF0E6E15626F010E6F15636F6251F7
:104E70007225646F63517321656F300E6427000ED5
:104E8000652320EE1AF05E51D9265F51DA2264C6FE
:104E9000DEF465C6DDF4000E12001550800B1E6EA8
:104EA00015501524246E14AE58EFA7F05AEFA7F052
:104EB0005BEFA7F024802450D8B461EFA7F063EF34
:104EC000A7F076EFA7F02428D8A469EFA7F06BEF3E
:104ED000A7F073EFA7F0000E126E000E136E000E17
:104EE000146E000E156E148E7EEFA7F0000E126E7B
:104EF000000E136E000E146E000E156E1950800B0E
:104F00001E1A195019241F6E18AE89EFA7F08BEFE7
:104F1000A7F08CEFA7F01F801F50D8B492EFA7F036
:104F200094EFA7F0A7EFA7F01F28D8A49AEFA7F057
:104F30009CEFA7F0A4EFA7F0000E166E000E176E00
:104F4000000E186E000E196E188EAFEFA7F0000E4F
:104F5000166E000E176E000E186E000E196E1F50A2
:104F6000D8B4B5EFA7F0B7EFA7F0BFEFA7F0245084
:104F7000D8A4BDEFA7F0BFEFA7F0C9EFA7F0000ED0
:104F8000126E000E136E000E146E000E156E61EFA1
:104F9000A9F018501202F3C429F5F4C42AF52950D7
:104FA000206E216A226A236A2A50256E266A276AA1
:104FB000286A17501302F3C429F5F4C42AF52950BE
:104FC0002026000E2122222223222A502526000EEE
:104FD00026222722282216501402F3C429F5F4C4ED
:104FE0002AF529502026000E2122222223222A508F
:104FF0002526000E26222722282222C523F521C598
:1050000022F520C521F5206A16501302F3C429F5B4
:10501000F4C42AF5295020262A502122000E2222EB
:10502000000E232217501202F3C429F5F4C42AF506
:10503000295020262A502122000E2222000E23224F
:1050400022C523F521C522F520C521F5206A165079
:105050001202F3C429F5F4C42AF5295020262A5057
:105060002122000E2222000E232218501302F3C424
:1050700029F5F4C42AF5295025262A502622000EA7
:105080002722000E282217501402F3C429F5F4C475
:105090002AF5295025262A502622000E2722000E06
:1050A000282218501402F3C429F5F4C42AF5295013
:1050B0001A6E2A501B6E1C6A1D6A1CC51DF51BC585
:1050C0001CF51AC51BF51A6A1A5025261B502622F4
:1050D0001C5027221D50282220C51AF521C51BF57A
:1050E00022C51CF523C51DF5190E7CEFA8F0D8903C
:1050F0001D321C321B321A32E82E77EFA8F01A50FC
:1051000025261B5026221C5027221D50282222C54E
:1051100023F521C522F520C521F5206A1F5024C59D
:105120001AF51B6A1A26000E1B22820E1A24296EFB
:10513000FF0E1B202A6EB2EFA8F0D8902536263637
:105140002736283623AEA7EFA8F0A9EFA8F0AAEFDC
:10515000A8F02580D890203621362236233629061D
:10516000D8A02A0627AEB7EFA8F0B9EFA8F09DEFB8
:10517000A8F0000E1F6E23AEC0EFA8F0C2EFA8F09B
